:020000040800F2
:1000000000070020F50400081D2A0008D529000873
:10001000FD290008D5290008F5290008F704000883
:10002000F7040008F7040008F7040008BD3B0008C7
:10003000F7040008F7040008F7040008F7040008B4
:10004000F7040008F7040008F7040008F7040008A4
:10005000F7040008F7040008C94D0008F14D000836
:10006000194E0008414E0008694E0008F7040008C8
:10007000F7040008F7040008F7040008F704000874
:10008000F7040008F7040008F7040008F704000864
:10009000F7040008F7040008F7040008914E000870
:1000A000F7040008F7040008F7040008F704000844
:1000B000794F0008F7040008F7040008F704000867
:1000C000F7040008F7040008F7040008F704000824
:1000D000F7040008F7040008654F0008F70400085B
:1000E000F54E0008F7040008F7040008F7040008BC
:1000F000F7040008F7040008F7040008F7040008F4
:10010000F7040008F7040008F7040008F7040008E3
:10011000F7040008F7040008F7040008F7040008D3
:10012000F7040008F7040008F7040008F7040008C3
:10013000F7040008F7040008F7040008F7040008B3
:10014000F7040008F7040008F7040008F7040008A3
:10015000F7040008F7040008F7040008F704000893
:10016000F7040008F7040008F7040008F704000883
:10017000F7040008F7040008F7040008F704000873
:10018000F7040008F7040008F7040008F704000863
:10019000F7040008F704000859260008692600083B
:1001A000F7040008F7040008F7040008F704000843
:1001B000F7040008F7040008F7040008F704000833
:1001C000F7040008F7040008F7040008F704000823
:1001D000F7040008F7040008F7040008F704000813
:1001E0007D16000800000000000000000000000074
:1001F00053B94AB9002908BF00281CBF4FF0FF318E
:100200004FF0FF3000F074B9ADF1080C6DE904CE89
:1002100000F006F8DDF804E0DDE9022304B07047E1
:100220002DE9F047089D04468E46002B4DD18A42A9
:10023000944669D9B2FA82F252B101FA02F3C2F1DC
:10024000200120FA01F10CFA02FC41EA030E94406D
:100250004FEA1C48210CBEFBF8F61FFA8CF708FB8E
:1002600016E341EA034306FB07F199420AD91CEB66
:10027000030306F1FF3080F01F81994240F21C8198
:10028000023E63445B1AA4B2B3FBF8F008FB1033E0
:1002900044EA034400FB07F7A7420AD91CEB040415
:1002A00000F1FF3380F00A81A74240F207816444E5
:1002B000023840EA0640E41B00261DB1D44000236A
:1002C000C5E900433146BDE8F0878B4209D9002DCE
:1002D00000F0EF800026C5E9000130463146BDE858
:1002E000F087B3FA83F6002E4AD18B4202D38242C2
:1002F00000F2F980841A61EB030301209E46002D71
:10030000E0D0C5E9004EDDE702B9FFDEB2FA82F2C5
:10031000002A40F09280A1EB0C014FEA1C471FFA23
:100320008CFE0126200CB1FBF7F307FB131140EA0A
:1003300001410EFB03F0884208D91CEB010103F1D7
:10034000FF3802D2884200F2CB804346091AA4B299
:10035000B1FBF7F007FB101144EA01440EFB00FE6D
:10036000A64508D91CEB040400F1FF3102D2A645D2
:1003700000F2BB800846A4EB0E0440EA03409CE771
:10038000C6F12007B34022FA07FC4CEA030C20FA1E
:1003900007F401FA06F31C43F9404FEA1C4900FA3E
:1003A00006F3B1FBF9F8200C1FFA8CFE09FB1811BB
:1003B00040EA014108FB0EF0884202FA06F20BD92E
:1003C0001CEB010108F1FF3A80F08880884240F27E
:1003D0008580A8F102086144091AA4B2B1FBF9F0C2
:1003E00009FB101144EA014100FB0EFE8E4508D9BD
:1003F0001CEB010100F1FF346CD28E456AD9023842
:10040000614440EA0840A0FB0294A1EB0E01A14226
:10041000C846A64656D353D05DB1B3EB080261EB94
:100420000E0101FA07F722FA06F3F1401F43C5E96E
:10043000007100263146BDE8F087C2F12003D840A4
:100440000CFA02FC21FA03F3914001434FEA1C47E6
:100450001FFA8CFEB3FBF7F007FB10360B0C43EAD8
:10046000064300FB0EF69E4204FA02F408D91CEB88
:10047000030300F1FF382FD29E422DD90238634486
:100480009B1B89B2B3FBF7F607FB163341EA034126
:1004900006FB0EF38B4208D91CEB010106F1FF3875
:1004A00016D28B4214D9023E6144C91A46EA00466C
:1004B00038E72E46284605E70646E3E61846F8E6FE
:1004C0004B45A9D2B9EB020864EB0C0E0138A3E747
:1004D0004646EAE7204694E74046D1E7D0467BE728
:1004E000023B614432E7304609E76444023842E7A0
:1004F000704700BF02E000F000F8FEE772B63A482D
:1005000080F30888394880F3098839484EF6085145
:10051000CEF20001086040F20000CCF200004EF67E
:100520003471CEF200010860BFF34F8FBFF36F8FBD
:1005300040F20000C0F2F0004EF68851CEF2000109
:100540000860BFF34F8FBFF36F8F4FF00000E1EEF5
:10055000100A4EF63C71CEF200010860062080F3CE
:100560001488BFF36F8F04F0C1FA04F09DFA04F011
:10057000E7FA4FF055301F491B4A91423CBF41F802
:10058000040BFAE71C49194A91423CBF41F8040B9D
:10059000FAE71A491A4A1B4B9A423EBF51F8040B1C
:1005A00042F8040BF8E700201749184A91423CBF73
:1005B00041F8040BFAE704F07BFA04F007FB144C53
:1005C000144DAC4203DA54F8041B8847F9E700F0F5
:1005D00041F8114C114DAC4203DA54F8041B884722
:1005E000F9E704F063BA00000007002000230020B0
:1005F00000000008000100200007002090520008C1
:10060000002300209023002090230020B04F0020E2
:10061000E0010008E4010008E4010008E40100082A
:100620002DE9F04F2DED108AC1F80CD0C3689D461E
:10063000BDEC108ABDE8F08F002383F311882846B3
:10064000A047002003F034FFFEE703F0ADFE00DF1B
:10065000FEE70000F8B504F0DDF9074604F01AFAE9
:100660000546B8BB204B9F4234D001339F4234D063
:100670001E4B27F0FF029A4232D1F8B200F04AFE38
:100680002E4642F2107400F04BFE08B100242646BC
:1006900002F0E2FA20B1032000F07CF800242646A4
:1006A00035B1134B9F4203D004F0ECF900242646E9
:1006B000002004F0B9F90EB100F082F801F05CF905
:1006C00000F052FE01F048F8204600F0CFF800F0AC
:1006D00077F8F9E72E460024D5E704460126D2E74D
:1006E000064640F6C414CEE7010007B0000008B08B
:1006F000263A09B008B500F0FBFFA0F120035842EC
:10070000584108BD07B541F21203022101A8ADF816
:10071000043001F00BF803B05DF804FB38B520237A
:1007200083F311881748C3680BB103F039FF164AE9
:10073000144800234FF47A7103F0F6FE002383F38C
:100740001188124C236813B12368013B236063684E
:1007500013B16368013B63600D4D2B7833B9636857
:100760007BB9022001F096F8322363602B78032BCB
:1007700007D163682BB9022001F08CF84FF47A732B
:10078000636038BD902300201D070008AC240020C2
:10079000A4230020084B187003280CD8DFE800F0D1
:1007A00008050208022001F06DB8022001F062B8CD
:1007B000024B00225A607047A4230020AC24002082
:1007C00010B502F049FA30B1224B03221A70224BC5
:1007D00000225A6010BD214B214A1C461968013184
:1007E000F8D004339342F9D16268A242F2D31D4B90
:1007F0009B6803F1006303F510439A42EAD204F0C8
:1008000027F9002000F0C2FF0220FFF7C3FF164BBC
:100810009A6D00229A65996F9A67996FD96DDA651A
:10082000D96FDA67D96F196E1A66D3F88010C3F8DA
:100830008020D3F8803072B64FF0E0232021C3F837
:10084000084DD4E9003281F311889D4683F308886E
:100850001047BFE7A4230020AC240020009000082C
:100860002090000800230020001002402DE9F04FE6
:1008700093B0AC4B00902022FF210AA89D6801F0A4
:1008800025F8A94A1378A3B9A8480121C3601170BB
:10089000202383F31188C3680BB103F081FEA44ABF
:1008A000A24800234FF47A7103F03EFE002383F345
:1008B0001188009B13B19F4B009A1A609E4A009CBE
:1008C0001378032B1EBF002313709A4A4FF0000ABF
:1008D00018BF5360D3465646D146012000F0D2FFE0
:1008E00024B1944B1B68002B00F01582002000F00F
:1008F000FFFE0390039B002B01DA00F07DFD039BBC
:10090000002BEDDB012000F0B5FF039B213B162BF4
:10091000E3D801A252F823F0750900089D090008E8
:10092000310A0008DB080008DB080008DB080008C3
:10093000BB0A00088B0C0008A50B0008070C000878
:100940002F0C0008550C0008DB080008670C000895
:10095000DB080008D90C0008150A0008DB080008AD
:100960001D0D000881090008150A0008DB080008B1
:10097000070C00080220FFF7BDFE002840F0F581BB
:10098000009B0221BAF1000F08BF1C4605A841F2E6
:100990001233ADF8143000F0C9FE9EE74FF47A70C0
:1009A00000F0A6FE071EEBDB0220FFF7A3FE0028E7
:1009B000E6D0013F052F00F2DA81DFE807F0030AF5
:1009C0000D10133605230593042105A800F0AEFE93
:1009D00017E054480421F9E758480421F6E758483D
:1009E0000421F3E74FF01C08404600F0D1FE08F167
:1009F00004080590042105A800F098FEB8F12C0F1A
:100A0000F2D1012000FA07F747EA0B0B5FFA8BFBE4
:100A10004FF0000900F0A6FF26B10BF00B030B2BE3
:100A200008BF0024FFF76EFE57E746480421CDE7D4
:100A3000002EA5D00BF00B030B2BA1D10220FFF74A
:100A400059FE074600289BD0012000F09FFE02209F
:100A5000FFF7A0FE00265FFA86F8404600F0A6FEEB
:100A6000044690B10021404600F0B0FE0136002857
:100A7000F1D1BA46044641F21213022105A8ADF89D
:100A800014303E4600F052FE27E70120FFF782FEB9
:100A90002546244B9B68AB4207D9284600F078FED8
:100AA000013040F067810435F3E7234B00251D70CA
:100AB000204BBA465D603E46ACE7002E3FF460AF87
:100AC0000BF00B030B2B7FF45BAF0220FFF762FEF2
:100AD000322000F00DFEB0F10008FFF651AF18F023
:100AE00003077FF44DAF0F4A926808EB050393426A
:100AF0003FF646AFB8F5807F3FF742AF124B019308
:100B0000B84523DD4FF47A7000F0F2FD0390039AAC
:100B1000002AFFF635AF019B039A03F8012B01373A
:100B2000EDE700BF00230020A82400209023002030
:100B30001D070008AC240020A4230020042300206B
:100B4000082300200C230020A8230020C820FFF742
:100B5000D1FD074600283FF413AF1F2D11D8C5F172
:100B6000200242450AAB25F0030028BF42468349D4
:100B70000192184400F098FE019A8048FF2100F08D
:100B8000A5FE4FEAA8037D490193C8F387022846D2
:100B900000F0A4FE064600283FF46DAF019B05EB74
:100BA000830537E70220FFF7A5FD00283FF4E8AEF4
:100BB00000F02AFE00283FF4E3AE0027B846704B51
:100BC0009B68BB4218D91F2F11D80A9B01330ED046
:100BD00027F0030312AA134453F8203C0593404620
:100BE000042205A902F022F804378046E7E73846D8
:100BF00000F0CEFD0590F2E7CDF81480042105A8A1
:100C000000F094FD06E70023642104A8049300F09B
:100C100083FD00287FF4B4AE0220FFF76BFD0028AF
:100C20003FF4AEAE049800F0E5FD0590E6E7002342
:100C3000642104A8049300F06FFD00287FF4A0AEA7
:100C40000220FFF757FD00283FF49AAE049800F009
:100C5000D3FDEAE70220FFF74DFD00283FF490AEF8
:100C600000F0E2FDE1E70220FFF744FD00283FF439
:100C700087AE05A9142000F0DDFD0421074604908D
:100C800004A800F053FD3946B9E7322000F030FDEA
:100C9000071EFFF675AEBB077FF472AE384A926846
:100CA00007EB090393423FF66BAE0220FFF722FDEC
:100CB00000283FF465AE27F003074F44B9453FF4E1
:100CC000A9AE484600F064FD0421059005A800F097
:100CD0002DFD09F10409F1E74FF47A70FFF70AFDE1
:100CE00000283FF44DAE00F08FFD002844D00A9B51
:100CF00001330BD008220AA9002000F0EFFD0028E4
:100D00003AD02022FF210AA800F0E0FDFFF7FAFC0C
:100D10001C4803F0D3FB13B0BDE8F08F002E3FF466
:100D20002FAE0BF00B030B2B7FF42AAE00236421B4
:100D300005A8059300F0F0FC074600287FF420AEDC
:100D40000220FFF7D7FC804600283FF419AEFFF7DA
:100D5000D9FC41F2883003F0B1FB059800F018FE91
:100D6000464600F0FFFD3C46B7E5064652E64FF02A
:100D7000000905E6BA467EE637467CE6A823002051
:100D800000230020A0860100094A136849F2690087
:100D900099B21B0C00FB01331360064B186844F238
:100DA000506182B2000C01FB0200186080B27047F3
:100DB000142300201023002010B500211022044627
:100DC00000F084FD034B03CB206061601868A060D5
:100DD00010BD00BF9075FF1F2DE9F041ADF5507DAE
:100DE0000DF13C086EAC40F2751207460D4610A896
:100DF0000021C8F8001000F069FD4FF4C472002112
:100E0000204600F063FD01F011FE274B4FF47A728B
:100E1000B0FBF2F0186093E80700012384E80700B4
:100E20000DF5ED702382FFF7C7FF47F605431F4915
:100E3000238407A804F03CF91D2384F832310DF215
:100E4000EB2207AB0DF1340C1E4603CE6645106055
:100E50005160334602F10802F6D1306810603379F0
:100E6000137141460122204601F0E6FD0023039361
:100E7000AB7E029305F11903019380B20123CDE902
:100E800004800093E97E06A3D3E90023384602F0EC
:100E90003BFA0DF5507DBDE8F08100BFAFF3008057
:100EA0009E6AC421818A46EEB4240020C050000806
:100EB0002DE9F043224DBBB001F0B8FDAB6840F224
:100EC000ED22C31A934232D906AFA8602B462822DE
:100ED0000021384602F000FC05F10E0000F0EEFCA7
:100EE000002604465FFA80F905F10E08F3B2F1001E
:100EF000994501F1280107D908EB06030822384675
:100F000002F0EAFB0136F1E708230122CDE90232C3
:100F100005340C4B0193A4B230230093CDE9047443
:100F200005A3D3E90023297B074802F0EDF93BB084
:100F3000BDE8F083AFF3008078F6339F93CACD8D80
:100F4000A8490020B5490020CC340020F0B58B8A98
:100F5000013B9BB2C92BC9B006460C4647D8274D6A
:100F60002F7B27BB05F10C03009308223B46394633
:100F7000204602F075FA7B1CFAB2D9001F46A38AFC
:100F8000013B9A4205DA0E322A44009200230822DD
:100F9000EEE700230022C5E900230023AB6085F8BB
:100FA000D730C5F8D8302B7B0BB9E37E2B73812269
:100FB000002106AD27A800F089FC0122294627A8B8
:100FC00001F008FE00230393A37E029304F11903AA
:100FD00080B201932823CDE90450E17E009330468E
:100FE00004A3D3E9002302F08FF9FFF761FF49B0B2
:100FF000F0BD00BF26417272DF25D7B7A849002097
:1010000070B50D4614461E4602F014F950B9022E72
:1010100010D1012C0ED112A3D3E90023C5E900237E
:10102000012007E0282C10D005D8012C09D0052C70
:101030000FD0002070BD302CFBD10BA3D3E90023CF
:10104000ECE70BA3D3E90023E8E70BA3D3E90023E4
:10105000E4E70BA3D3E90023E0E700BFAFF3008090
:10106000401DA12026812A0B78F6339F93CACD8D8F
:101070009E6AC421818A46EE26417272DF25D7B767
:10108000F017304A39059E562DE9F04F8DB002AF6A
:1010900080460D4602F0CEF8044600285CD12B7E37
:1010A000022B1BD1EB8A012B18D101F0BFFC0646A5
:1010B000FFF76AFE03464FF4C870DFF81C92B3FBDB
:1010C000F0F206F5167602FB103316FA83F3C9F830
:1010D0000030EB7E33B97B4B00221A702C37BD46B3
:1010E000BDE8F08FAB8AE6B2013BB34204F10104E4
:1010F0000CD907F108031E44E100009600230822E2
:1011000001F0F801284602F0ABF9EBE707F118000F
:10111000FFF752FE324607F1180107F1080003F00D
:1011200095FF0028D7D10F2E08D8664B1E70D9F82E
:101130000030A3F51673C9F80030CFE7FB1DF87136
:101140000146009307220346284602F089F9F979FF
:10115000404602F067F8C1E7EB8A282B26D010D86A
:10116000012B1ED0052BB9D1BFF34F8F5649574BDA
:10117000CA6802F4E0621343CB60BFF34F8F00BF35
:10118000FDE7302BAAD16B7E514C0133627BDBB281
:101190009342E94603D1EA7E237B9A420BD0CD46A7
:1011A0009CE729464046FFF717FE97E72946404649
:1011B000FFF7CCFE92E74FF0000807F11803A7F8FD
:1011C00018801022009341460123284602F048F976
:1011D000AE8A023EB6B2F31C9B109B000733DB08BD
:1011E000A9EBC3039D460DF1080A1FFA88F34FEAE5
:1011F000C8019E4201F110010AD90AEB08030093CD
:1012000008220023284602F02BF908F10108ECE738
:1012100094F8D70000F0CAFAD4F8D810054619B9E6
:1012200094F8D70000F0D2FAD4F8D83033449D4275
:1012300005D294F8D7000021013000F0C7FA4FEA38
:10124000960B4FF000081FFA88F18B45D4E9003265
:1012500009D90AEB880103EB8800012200F03EFB6C
:1012600008F10108EFE7F31842F10002C4E9003287
:10127000D4F8D83094F8D70006EB0308C4F8D88027
:1012800000F094FA804509D394F8D730D4F8D80008
:101290000133401B84F8D730C4F8D800FF2E0D4D21
:1012A00009D80023237300F0AFFA01F0D5FC2881A0
:1012B00008B9FFF785FA23689B0A01332B810023C5
:1012C000A3606CE7C534002000ED00E00400FA05DF
:1012D000A8490020B4240020C834002010B50A4BCF
:1012E0000A4A1A6003F5805393F848203AB95C6CB7
:1012F0002CB1204601F034FA204603F08FFEBDE801
:101300001040034801F02CBAF834002008510008BE
:1013100028450020014B1870704700BFC0240020F2
:1013200010B54FF000540C4B22689A4211D10B4B70
:10133000627D1A700A48237D03730A49C9220E3060
:1013400000F0B2FAE0220021204600F0BFFA0120AE
:1013500010BD0020FCE700BF9AAD44C5C0240020AA
:10136000A84900201600002037B501F075FC194D82
:101370001949288102236B7100220123174800F0CC
:10138000ADFD00230193164B164900931648174BE9
:101390004FF4805201F020FF154B197811B112481B
:1013A00001F040FF01F042FB0446FFF7EDFC4FF473
:1013B000C873B0FBF3F202FB130304F5167010FAC6
:1013C00083F00C4B186003F065FB08B10F232B81F1
:1013D00003B030BDB424002040420F00F834002098
:1013E00001100008C4240020CC340020891000081B
:1013F000C0240020C83400202DE9F04F2DED028BD1
:1014000095A7D7E900670FF25829D9E900898C4CD4
:1014100095B0DFF854A2DFF854B2204601F0D8FFAF
:10142000034650B30025CDE911551095ADF84C5049
:10143000027B8DF84C209968406811AA03C21B6892
:1014400043F00043109301F0F3FA10EB0A0241F16C
:101450000003009510A9584600F0FCFAA842794A0A
:1014600005DD204601F0B8FF764A1570D5E7137800
:10147000072B00F2B980013313700DAD9FED6E8B19
:101480000023DFF8E8B10C93ADF83C300D936B60AE
:1014900000230DF125028DED008B4FF0010A09A903
:1014A00058468DF825308DF824A001F07BF89DF882
:1014B00024200023002A40F09B80204601F0BAFE41
:1014C0000546002847D1DFF8A8B101F0AFFADBF8F4
:1014D000003098423FD301F0A9FA0790FFF754FC7F
:1014E000079A4FF4C87302F51672B0FBF3F101FBD3
:1014F000130312FA83F3CBF80030DFF878B19BF8CE
:1015000000100791002914BF2B46534610A88DF8F0
:101510003030FFF751FC0799C1F11002D2B2062A10
:1015200010AB28BF062219440DF13100079200F0DC
:10153000BBF9079A0CAB0393182302930132424B79
:10154000D2B2CDE900A304923B463246204601F0D8
:1015500073FE8BF8005001F069FA3C4A3C4D136869
:10156000C31AB3F57A7F32D3106001F061FA0246F4
:101570000B46204601F03AFF204601F05BFE30B3F7
:101580002B7BDFF8F4A0002B14BF032302238AF87F
:10159000053001F04BFA0DF1400B4FF47A73012244
:1015A000B0FBF3F05946CAF80000504601F0EAFAE1
:1015B00018230293274B019380B240F25513CDE9D3
:1015C00003B0009342464B46204601F035FE2B7B8C
:1015D0002BB1FFF76DFC2B7B002B7FF41AAF15B0FE
:1015E000BDEC028BBDE8F08F204601F0F5FE44E72C
:1015F0004FF0904110A84A6982F020024A611946D2
:10160000102200F063F90DF126030AAA0CA958462E
:1016100000F02EFB95E8030011AB83E803009DF872
:101620003C308DF84C300C9B109310A9DDE90A2357
:10163000204602F099F82BE70000000000000000AF
:10164000CC3400208D4A0020C4340020884A002079
:10165000A84900208C4A0020401DA12026812A0B89
:10166000F1C6A7C1D068080F40420F00F83400202F
:10167000C8340020C5340020B424002008B5054833
:1016800000F09AFBBDE80840034A0449002003F03B
:10169000BFBC00BFF8340020E04A0020DD12000883
:1016A00070B5104B1B780133DBB2012B0C4612D8FE
:1016B0000D4B1D6829684FF47A730E6AA2FB033242
:1016C000014622462846B047844204D1074B0022F7
:1016D0001A70012070BD4FF4FA7002F0EFFE002086
:1016E000F8E700BF182300201C230020D44A002064
:1016F00007B50023024601210DF107008DF80730E0
:10170000FFF7CEFF20B19DF8070003B05DF804FBA2
:101710004FF0FF30F9E700000A4608B50421FFF753
:10172000BFFF80F00100C0B2404208BD30B4074B9B
:101730000A461978064B53F821402368DD69054BAA
:101740000146AC46204630BC604700BFD44A00206A
:101750001C230020A086010070B502F0E7FF094EAF
:10176000094D3080002428683388834208D902F06C
:10177000D9FF2B6804440133B4F5104F2B60F2D32A
:1017800070BD00BFD64A0020904A002003F090B8F8
:1017900000F1006000F510400068704700F1006043
:1017A000920000F5104003F007B80000054B1A68DE
:1017B000054B1B889B1A834202D9104402F0B2BF2A
:1017C00000207047904A0020D64A002038B5084DC6
:1017D000044629B128682044BDE8384002F0BCBF67
:1017E0002868204402F0A6FF0028F3D038BD00BFCF
:1017F000904A00200020704700F10050A0F51040F2
:10180000D0F8900570470000064991F8243033B1B4
:101810000023086A81F824300822FFF7BFBF0120A7
:10182000704700BF944A0020014B1868704700BF02
:10183000002004E070B50E4B5C6893F90860421E0E
:101840000A44013C0B46934207D214F9015F581C2D
:101850002DB100F8015C0346F5E7184605E02C249D
:1018600082421C7001D9981C5E70401A70BD00BF86
:1018700020230020022802BF4FF090434FF40012B3
:101880009A617047022802BF4FF0904320229A616C
:1018900070470000022801BF4FF09042536983F067
:1018A000200353617047000010B50023934203D01A
:1018B000CC5CC4540133F9E710BD00000346024676
:1018C000D01A12F9011B0029FAD1704702440346CD
:1018D000934202D003F8011BFAE770472DE9F84361
:1018E0001F4D144695F824200746884652BBDFF862
:1018F00070909CB395F824302BB92022FF214846E4
:101900002F62FFF7E3FF95F82400C0F10802A2421E
:1019100028BF2246D6B24146920005EB8000FFF771
:10192000C3FF95F82430A41B1E44F6B2082E1744BA
:101930009044E4B285F82460DBD1FFF765FF00280E
:10194000D7D108E02B6A03EB82038342CFD0FFF7A5
:101950005BFF0028CBD10020BDE8F8830120FBE726
:10196000944A0020024B1A78024B1A70704700BF4D
:10197000D44A00201823002003494FF461430B6030
:10198000024B186802F034BCBC4A00201C23002023
:10199000094B10B51822044600211846FFF796FFA0
:1019A000064A074B127804600146BDE8104053F820
:1019B000220002F01DBC00BFBC4A0020D44A002017
:1019C0001C230020202383F3118862B67047000097
:1019D000002383F3118862B670470000012070472E
:1019E0007047000010B41346026814680022A44631
:1019F0005DF8044B6047000000F5805090F85904F2
:101A00007047000000F5805090F8520470470000C5
:101A100000F5805090F9580470470000502070473E
:101A200000F5805208B5FFF7CDFFD2F89834D2F810
:101A300094041844D2F890341844D2F878341844F6
:101A4000D2F888341844D2F884341844FFF7C0FF21
:101A500008BD00002DE9F74F0C4600F580511F46E8
:101A600091F85234BDF83090054690469BB1D1F8BC
:101A700074340133C1F8743423689A0006D4237B8C
:101A8000082B0BD9627B0AB10F2B07D9D1F8783418
:101A90000133C1F878344FF0FF300FE0FFF792FFC9
:101AA000EB6AD3F8C42012F4001A0AD0D1F87C34BF
:101AB0000133C1F87C34FFF78BFF002003B0BDE891
:101AC000F08FD3F8C46022686B6AC6F301464FF00A
:101AD000480B002A1BFB063BB4BF42F08042920435
:101AE000CBF8002023685B0044BF42F00052CBF8E3
:101AF0000020227B330643EA0243CBF80430607BAC
:101B0000720118B343F44013CBF80430D1F8A43475
:101B10000133C1F8A434AB1803F58353197B41F0AA
:101B200020011973207B019200F0FEFD019A033021
:101B300080105FFA8AF383420AF1010A0DDA04EB9E
:101B400083010BEB830349689960F2E7AB1803F557
:101B50008353197B60F34511E3E7EB6A0121B14040
:101B6000C3F8CC10AB1803F58253C3E9048705EB27
:101B7000461303F582532146183304F10C0051F843
:101B800004CB43F804CB8142F9D1098819802A4457
:101B900041F268032846D65002F5805209F003034B
:101BA00092F86C1043F0100321F01F010B4382F8F0
:101BB0006C30FFF70DFF42463B462146CDF8309092
:101BC00003B0BDE8F04F00F075BD000038B5C26A43
:101BD000936923F001039361044600F027FF054653
:101BE000E36A9B69DB0706D500F020FF431BFA2B55
:101BF000F6D9002004E004F58054012084F8520452
:101C000038BD000013B500F580540191606C00F000
:101C1000DDFD1F280AD90199606C202200F04CFEDE
:101C2000A0F120035842584102B010BD0020FBE74C
:101C300008B500F58050FFF7C5FE406C00F09AFD36
:101C4000BDE80840FFF7C4BE002202608281426006
:101C50008260704710B500220023C0E900230023F2
:101C6000044603810C30FFF7EFFF204610BD000053
:101C70002DE9F047074688B007F5805468469A4634
:101C80008846FFF79FFE9146FFF7E4FF606C00F087
:101C900083FD1F282CD9606C2022694600F08EFE3F
:101CA000202825D194F8523413B303AD444605AB34
:101CB0002E4603CE9E4220606160354604F1080442
:101CC000F6D130682060B388A380DDE90023C9E93C
:101CD0000023BDF80830AAF80030FFF779FE4A4625
:101CE00053464146384608B0BDE8F04700F0D0BC46
:101CF000FFF76EFE002008B0BDE8F0872DE9F84F31
:101D000000230646C0E90133284B46F8303B00F576
:101D10008154054688463746103438462037FFF749
:101D200099FFA742F9D105F580544FF480532663FB
:101D30000026C4E90D366764012305F5835705F5D0
:101D4000A359E66384F8403084F84830103709F12D
:101D500010094FF0000A4FF0000B47E908ABA7F15C
:101D60001800FFF771FF203747F8286C4F45F4D172
:101D700084F85884A4F85A64A4F85C64A4F85E64F7
:101D800084F86064A4F86264A4F86464A4F86664E7
:101D900084F86864B8F1000F02D0054800F040FEF6
:101DA000044BEB622846BDE8F88F00BF08510008DD
:101DB000EC5000080068004010B5044B1978044648
:101DC0004A1C1A70FFF79AFF204610BDDD4A00201A
:101DD0002DE9F04300295FD03048314BB3FBF1F3DC
:101DE00081428CBF0A201120451EB3FBF0F700FB97
:101DF0001730ECB220B1022D2846F5D8002037E08C
:101E00007D1EB5F5806F33D2C4EBC40808F103031F
:101E10004FEAE30EC3F3C703A4EB030C0EF1010971
:101E20004FF47A705FFA8CF60EFB000E59FA8CFCB8
:101E3000BEFBFCFCBCF5617F1CDC1FFA8CF4581C5B
:101E400056FA80F047431648B0FBF7F7B942D5D1B0
:101E5000013BDBB20F2BD1D8711EC9B207294FF05D
:101E6000000005D8107114805580537191710120C4
:101E7000BDE8F08308F1FF334FEAE30CC3F3C70377
:101E8000E41A0CF1010EE6B20CFB00005EFA84F4D9
:101E9000B0FBF4F4A4B2D2E70846E9E73F420F00F2
:101EA00000366E010B4B10B54FF4547204460021FE
:101EB0001846FFF70BFD084BA3614033E361D833AD
:101EC0002362F0336362E36A60610022C3F8C020DA
:101ED00010BD00BF50A70040C0A700402DE9F04F43
:101EE00000F58055994695F85834012B89B0044681
:101EF0008A46904604D90027384609B0BDE8F08FDD
:101F0000904A52F8231009B942F823008E49C4F8C8
:101F10000CA00B7884F8109093B9FFF753FD8B4B0E
:101F20009A6D42F000729A659A6B42F000729A6361
:101F30009A6B22F000729A6301230B70FFF748FD41
:101F400095F8513473B902215620FFF73BFD01F09B
:101F50009DFF0221572001F099FF012385F851349C
:101F6000FFF736FDFFF72EFDE26A936923F01003B9
:101F7000936100F05BFD0746E36A9E6916F0080670
:101F800007D000F053FDC31BFA2BF5D9FFF720FD56
:101F9000B1E79A6942F001029A6100F047FD0746F5
:101FA000E36A9A69D00705D400F040FDC31BFA2B01
:101FB000F6D9EBE79A6942F002029A61E36A0027D8
:101FC0005F65FFF705FD686C00F0D4FB04F5825BEC
:101FD0000BF1100B202200216846FFF777FC02A8C6
:101FE000FFF732FE06976A460BEB06030DF1180E5B
:101FF0009446BCE80300F44518605960624603F15A
:102000000803F5D1DCF80000186020369CF80420A5
:102010001A71B6F5806FDDD1002304F5A25285F860
:10202000503485F853341A3251462046FFF7D0FE1B
:10203000074690B9E26A936923F00103936100F0C7
:10204000F5FC0546E36A9B69D9077FF554AF00F0BC
:10205000EDFC431BFA2BF5D94DE795F85F6495F835
:102060005E24C5F86CA4360246EA426695F8602400
:10207000E36A1643B5F85C2446EA0246DE61B8F12D
:10208000000F29D004F5A352023241462046FFF743
:102090009FFE90B9E26A936923F00103936100F017
:1020A000C5FC0546E36A9B69DA077FF524AF00F0BB
:1020B000BDFC431BFA2BF5D91DE795F8683495F85C
:1020C0006714C5F870841B0143EA0123B5F8641452
:1020D000E26A43EA0143D3602046FFF7E3FE0023B0
:1020E00085F85934E36A6FF040421A65E36A184A8A
:1020F0005A65E36A44229A65E36A0722C3F8DC2042
:10210000E36A0322DA65E26A9369B9F1030F43F4E3
:10211000407393613FF4F0AEE26A936923F00103E8
:10212000936100F083FC0646E36A9B69DB0705D5F3
:1021300000F07CFC831BFA2BF6D9DCE6012385F842
:102140005234D9E6D84A0020DC4A00200010024070
:102150009B0008002DE9F04F054689B0904699464E
:10216000002741F2680A00F58056EB6AD3F8D430B4
:10217000FB40D8074AD505EB471252444FEA471BAC
:102180001379190742D4D6F880340133C6F8803465
:1021900013799A0648BFD6F8A83405EB0B0248BF5E
:1021A0000133524448BFC6F8A834137943F00803FA
:1021B0001371DB0722D596F85334FBB105F5825431
:1021C000183468465C44FFF745FD03AB04F1080C86
:1021D000206861681A4603C2083464451346F7D183
:1021E00020681060A2889A800123ADF808302B681F
:1021F000CDE90089DB6B694628469847D6F8543408
:1022000023B1D6F89C340133C6F89C340137202F13
:10221000ABD109B0BDE8F08F2DE9F04F8DB0044689
:102220000F4600F005FC82468946002F56D1E36A2E
:10223000D3F89020920141BF04F58051D1F8942445
:102240000132C1F89424D3F89020160703D100205E
:102250000DB0BDE8F08FD3F89050E669C5F30125C5
:10226000482303FB0566E8464046FFF7EDFC32686D
:1022700051004ABF22F06043C2F38A4343F0004357
:10228000920048BF43F080430093736813F4001337
:102290001FBF04F5805201238DF80D30D2F8AC3405
:1022A0000EBF8DF80D300133C2F8AC34F38803F063
:1022B0000F038DF80C304FF0000B9DF80C0000F070
:1022C00033FA5FFA8BF3984220D9F2180CA90B4429
:1022D000127A03F82C2C0BF1010BEEE7012FB6D18B
:1022E000E36AD3F89820950141BF04F58051D1F8F5
:1022F00094240132C1F89424D3F898201007A6D072
:10230000D3F89850266AC5F30125A9E7EFB9E36A27
:10231000C3F8945004A8FFF79DFC98E80F0007ADA0
:1023200007C52B800023ADF8183023682046CDE97F
:1023300004A9DB6B04A9984704F5805458B1D4F87C
:102340008C340133C4F88C3482E7012F04BFE36A74
:10235000C3F89C50DEE7D4F890340133C4F89034CD
:10236000012075E7F8B505460F4600F580540126B3
:1023700039462846FFF750FF10B184F85364F7E759
:10238000D4F8543423B1D4F89C340133C4F89C34C9
:10239000F8BD0000F0B5C36A1A6C12F47F0F2BD0A1
:1023A00000F580541B6CC4F8A03441F2680500238A
:1023B00047194FF0010C00EB43122A445E011179DA
:1023C00011F0020F15D0490713D4B959C66AD6F8CF
:1023D000C8E00CFA01F111EA0E0F0AD0C6F8D010CD
:1023E000117941F004011171D4F888240132C4F844
:1023F00088240133202BDED1F0BD000010B5254C20
:10240000254B226802B338B31A6D12060ED580220E
:102410001A6500F00DFB50EA01020B4602D00138AC
:1024200061F1000302462068FFF794FE1A4A136D1B
:102430001B032AD523684FF4002103F5805311654F
:10244000012283F8592420E001221A6508221A6526
:102450004FF480621A6510BD196DC80702D4196D5A
:10246000890705D50321196510460021FFF77AFF7A
:10247000094B1A6D100702D41A6DD10605D5182222
:102480001A6520680121FFF76DFF2068BDE8104044
:10249000FFF780BFD84A00200068004008B5FFF76A
:1024A00091FAFFF777FFBDE80840FFF791BA000007
:1024B000C36AD3F8C40080F40010C0F340507047E2
:1024C00000F5805008B5FFF77DFA406C00F064F924
:1024D000FFF77EFA43090CBF0120002008BD000071
:1024E00000F5805393F8592462B1C16A8A6922F0D9
:1024F00001028A61D3F898240132C3F8982400229B
:1025000083F85924704700002DE9F74300F5825104
:1025100098461031FFF756FA002541F2680E4FF049
:10252000010900F5805C00EB4514744423795E07D3
:102530001CD4DB061AD5C36A8E69D3F8C87009FAB1
:1025400006F63E4212D04F6801970F689742019FEE
:1025500077EB08070AD2C3F8D060237943F004036D
:102560002371DCF884340133CCF884340135202D18
:1025700001F12001D7D103B0BDE8F043FFF728BA3D
:10258000F8B51E46002313700F4605461446FFF7A4
:1025900097FF80F0010038701EB12846FFF788FFD2
:1025A0002070F8BD2DE9F04F85B099460B78019366
:1025B0000E4613780293DDE90EBA8046174600F006
:1025C00037FA337804460D4613B93B78002B41D0D7
:1025D00022462B464046FFF797FFFFF75FFFFFF7C6
:1025E0007FFF4B463A463146FFF7CAFF33782BB19F
:1025F000019B1BB1012005B0BDE8F08F3B7813B102
:10260000029B002BF6D108F5805303935C4575EBD4
:102610000A031FD2039BD3F85404D8B10368BBEB61
:102620000402D9686AEB050388474B463A463146AF
:102630004046FFF7A5FF337813B1019B002BD9D19A
:102640003B7813B1029B002BD4D100F0F1F9044682
:102650000D46DBE70020CEE708B50020FFF7CEFEF1
:10266000BDE8084001F0DEBA08B50120FFF7C6FE5C
:10267000BDE8084001F0D6BA13B56C4684E8060000
:10268000031D94E8030083E80500012002B010BD9B
:1026900073B58568019155B11B885B0707D4D0E9F4
:1026A00000369B6B9847019AC1B23046A84701207B
:1026B00002B070BDF0B5866889B005460C465EB1C3
:1026C000BDF838305B070AD4D0E900379B6B9847D8
:1026D0002246C1B23846B047012009B0F0BD002201
:1026E0000023CDE900230023ADF808300A4603ABF0
:1026F00001F10806106851681C4603C40832B24252
:102700002346F7D1106820609288A28000F092F9E9
:102710000423ADF808302B68CDE90001DB6B694676
:1027200028469847D8E70000082817D909280CD070
:102730000A280CD00B280CD00C280CD00D280CD05B
:102740000E2814BF4020302070470C207047102006
:1027500070471420704718207047202070470000F1
:1027600010B5037C044613B9006802F067FC2046EC
:1027700010BD00000023BFF35B8FC360BFF35B8F0E
:10278000BFF35B8F8360BFF35B8F7047BFF35B8FDB
:102790000068BFF35B8F704770B505460C30FFF7DC
:1027A000F5FF05F1080604463046FFF7EFFFA042AB
:1027B00006D930466D68FFF7E9FF2544281A70BD39
:1027C0003046FFF7E3FF201AF9E7000070B5054631
:1027D000406898B105F10800FFF7D8FF05F10C0635
:1027E00004463046FFF7D2FF8442304694BF6D68FE
:1027F0000025FFF7CBFF013C2C44201A70BD0000E0
:1028000038B50C460546FFF7C7FFA04210D305F1C7
:102810000800FFF7BBFF04446868B4FBF0F100FB5D
:102820001144BFF35B8F0120AC60BFF35B8F38BDF9
:102830000020FCE72DE9F041144607460D46FFF75E
:10284000C5FF844228BF0446D4B1B84658F80C6B83
:102850004046FFF79BFF3044286040467E68FFF704
:1028600095FF331A9C4203D86C600120BDE8F081CB
:102870006B60A41B3B68AB602044E8600220F5E776
:102880002046F3E738B50C460546FFF79FFFA04208
:1028900010D305F10C00FFF779FF04446868B4FB1E
:1028A000F0F100FB1144BFF35B8F0120EC60BFF33C
:1028B0005B8F38BD0020FCE72DE9FF418846694663
:1028C0000746FFF7B7FF6C4606B204EBC6060025C5
:1028D000B44209D06268206808EB0501FEF7E4FF06
:1028E000636808341D44F3E729463846FFF7CAFFFA
:1028F000284604B0BDE8F081F8B505460C300F4617
:10290000FFF744FF05F1080604463046FFF73EFF97
:10291000A042304688BF6C68FFF738FF201A386045
:1029200020B130462C68FFF731FF2044F8BD00008D
:1029300073B5144606460D46FFF72EFF844228BFA6
:1029400004460190DCB101A93046FFF7D5FF019B99
:1029500033B93268C5E90233C5E9002401200CE02F
:102960009C4238BF01942860019868608442F5D980
:102970003368AB60241AEC60022002B070BD2046C0
:10298000FBE700002DE9FF410F466946FFF7D0FF46
:102990006C4600B204EBC0050026AC4209D0D4F866
:1029A000048054F8081BB8194246FEF77DFF4644E0
:1029B000F3E7304604B0BDE8F081000038B50546C5
:1029C000FFF7E0FF044601462846FFF719FF2046BF
:1029D00038BD000000B59BB0EFF30981682268465E
:1029E000FEF762FFEFF30583014B9B6BFEE700BF31
:1029F00000ED00E008B5FFF7EDFF000000B59BB06B
:102A0000EFF3098168226846FEF74EFFEFF3058376
:102A1000014B5B6BFEE700BF00ED00E0FEE700004E
:102A20000FB408B5029801F0E3FCFEE701F08EBF99
:102A300001F066BF01F064BF2DE9F0470D46044682
:102A400000219046284640F27912FEF73FFF2346C8
:102A500020220021284600F03FFE231D02222021D3
:102A6000284600F039FE631D03222221284600F08B
:102A700033FEA31D03222521284600F02DFE04F17C
:102A8000080310222821284600F026FE04F1100336
:102A900008223821284600F01FFE04F11103082205
:102AA0004021284600F018FE04F1120308224821B4
:102AB000284600F011FE04F114032022502128467C
:102AC00000F00AFE04F1180340227021284600F0AD
:102AD00003FE04F120030822B021284600F0FCFD8B
:102AE00004F121030822B821284600F0F5FD04F185
:102AF0002207C0263B46314608222846083600F009
:102B0000EBFDB6F5A07F07F10107F3D104F1320325
:102B100008223146284600F0DFFD002704F1330A81
:102B200094F832304FEAC7099F4209F5A47615D3CD
:102B3000B8F1000F08D1314604F5997307222846F1
:102B400000F0CAFD09F24F16274694F832213B1BCC
:102B500093420CD3F01DC008BDE8F0870AEB0703D1
:102B600008223146284600F0B7FD0137D8E707F2C2
:102B7000331331460822284600F0AEFD08360137EF
:102B8000E3E7000013B50446084600210160234630
:102B9000C0F803102022019000F09EFD0198231D33
:102BA0000222202100F098FD0198631D03222221BA
:102BB00000F092FD0198A31D0322252100F08CFD59
:102BC000019804F108031022282100F085FD072058
:102BD00002B010BDF8B50E4605461446002181220C
:102BE0003046FEF773FE2B4608220021304600F0E7
:102BF00073FD7CB96B1C07220821304600F06CFD88
:102C00000F2401236A785F1C013B934204D3E01D2B
:102C1000C008F8BD0824F4E7EB1921460822304625
:102C200000F05AFD08343B46ECE7000030B5094D92
:102C30000A4491420DD011F8013B5840082340F35B
:102C40000004013B2C4013F0FF0384EA5000F6D14E
:102C5000EFE730BD2083B8ED73B5384A106851688E
:102C60006B4603C36A4636493648082302F0FEF92C
:102C7000044670B9344A106851686B4603C36A460B
:102C800032493048082302F0F1F9044630BB0A20EB
:102C900022E00369B3F5EE2FECD8418B40F27C5271
:102CA0009142E7D12A4A024402F110018B42E1D35A
:102CB000103B244900209D1AFFF7B8FF2A4606461C
:102CC00004F118010020FFF7B1FFA3689E42D1D1A3
:102CD000E3689842CED1002002B070BD0369B3F51D
:102CE000EE2F22D8B0F8661040F27C5291421ED1ED
:102CF000174A024402F15C018B421AD35C3B114932
:102D000000209D1AFFF792FF2A46064604F164014F
:102D10000020FFF78BFFA268964203460BD1E068C4
:102D2000834214BF0D200020D6E70B20D4E70C20EF
:102D3000D2E71020D0E70D20CEE700BF48510008B1
:102D4000DC6F07000090000851510008906F0700E9
:102D50000870FFF72DE9F041C56915B9C161BDE8FB
:102D6000F0814B6823F06047C3F38A464FEAD37E75
:102D7000C3F3807816EA230638BF3E46AC462B469E
:102D80005A68BEEBD27F22F060440AD0002A18DADB
:102D9000A40CB44217D19D420FD10D60DEE713465B
:102DA000EEE7A74207D102F08044C2F380724245A9
:102DB0000BD054B1EFE708D2EDE7CCF800100B6070
:102DC000CDE7B44201D0B442E5D81A689C46002A47
:102DD000E5D11960C3E700002DE9F047089D01F037
:102DE00007044FEAD508224405F0070500EBD1009F
:102DF0004FF47F49944201D1BDE8F08704F0070702
:102E000005F0070A57453E4638BF5646C6F1080644
:102E1000111B8E4228BF0E46E10808EBD50E415C1F
:102E200013F80EC0B94029FA06F721FA0AF1FFB2E9
:102E30008CEA010147FA0AF739408CEA010C03F8E1
:102E40000EC034443544D5E780EA0120082341F21E
:102E5000210201B24000002980B203F1FF33B8BF64
:102E6000504013F0FF03F4D17047000038B50C4612
:102E70008D18A54200D138BD14F8011BFFF7E4FFFF
:102E8000F7E7000002684AB113680360C38801894C
:102E900001339BB29942C38038BF0381104670470B
:102EA00070B588B0202204460D4668460021FEF722
:102EB0000DFD20460495FFF7E5FF024658B16B462D
:102EC000054608AE1C4603CCB44228606960234620
:102ED00005F10805F6D1104608B070BD082817D9CD
:102EE00009280CD00A280CD00B280CD00C280CD0A8
:102EF0000D280CD00E2814BF4020302070470C2025
:102F00007047102070471420704718207047202009
:102F100070470000082817D90C280CD910280CD9A4
:102F200014280CD918280CD920280CD930288CBF8B
:102F30000F200E207047092070470A2070470B2091
:102F400070470C2070470D207047000010B54B688B
:102F500023B9CA8A63F30902CA8210BDC4681A6819
:102F60001C60C360438A013B43824A60EFE7000074
:102F70002DE9F84F1D46CB8A0F46C3F309010529F9
:102F8000814692460B4630D00020AAB207F11A04BF
:102F90009EB2042E1FFA80F80FD8904503F101036A
:102FA00006D3FB8A0A4462F30903FB8201201AE07C
:102FB0001AF80060E6540130EAE79045F1D2A1F139
:102FC000050B1C237C68BBFBF3F203FB12BB1FFA4F
:102FD0008BF6002C45D14846FFF754FF044638B91C
:102FE00078606FF00200BDE8F88F4FF00008E6E768
:102FF000002606607860ADB24FF0000B454510D951
:103000000AEB0803221D13F8011B9155B1B208F118
:1030100001081B291FFA88F82BD0454506F1010647
:10302000F1D8FB8AC3F30902154465F30903BCE731
:10303000013292B21C462368002BF9D16B1F0B445E
:103040001C21B3FBF1F301339BB29A42D3D2BBF103
:10305000000FD0D14846FFF715FF20B9C4F800B0E3
:10306000BFE70122E7E7C0F800B05E4620600446F3
:10307000C1E74545D5D94846FFF704FF08B92060A8
:10308000AFE7C0F800B0002620600446B6E70000B5
:103090002DE9F04F2DED028B83B0CDE90013BDF883
:1030A0003C5007469146002A00F092802DB10E9BBD
:1030B000002B00F08D80072D32D807F10C00FFF7B0
:1030C000E1FE044638B96FF00204204603B0BDECBF
:1030D000028BBDE8F08F14220021FEF7F7FB0E995A
:1030E0002A4604F10800FEF7DFFB681CC0B2FFF7B8
:1030F00011FFFFF7F3FE207499F80030013814FA3D
:1031000080F003F01F0363F03F030372009B43F062
:103110000041616038462146FFF71CFE0124D4E7D8
:1031200000F10C034FF0000808EE103A4FF0800A4F
:103130004646444618EE100AFFF7A4FE83460028D0
:10314000C1D014220021FEF7C1FBC6BB019BABF826
:10315000083002200E9B00F1080299195BFA82F2F6
:103160000130C0B2082801D0AE422AD3FFF7D2FE08
:10317000FFF7B4FE99F80020009B411E02F01F02E9
:1031800042EA4812AE4208BF4FF0400A5BFA81F1B2
:103190004AEA020A43F0004281F808A08BF81000C6
:1031A000CBF8042059463846FFF7D4FD0134AE422F
:1031B00024B288F001084FF0000ABBD185E7002057
:1031C000C8E711F801CB02F801CB0136B6B2C7E768
:1031D0006FF0010479E70000F8B515460E46282285
:1031E000002104461F46FEF771FB069B6360B5F5A0
:1031F000001F079BA76034BF6A094FF6FF72236266
:1032000004F10C0097B200239A4205D80023036012
:1032100027826382A382F8BD0660013330462036E0
:10322000F2E7000003781BB94BB2002BC8BF017056
:1032300070470000007870472DE9F74FDDF83C90AB
:10324000BDF830500D9E9DF83840BDF84070804666
:1032500092469B46B9F1000F01D1002F51D11F2C8E
:103260004FD898F80000B0B9072F47D835F00303BE
:1032700047D13A4649464FF6FF70FFF7F7FD20F079
:1032800001002D02400445EA0464400C44EA402455
:103290004FF6FF7321E040EA0520072F40EA04645F
:1032A000F6D900254FF6FF73C5F12000A5F12002E5
:1032B0002AFA05F10BFA00F001432BFA02F211434E
:1032C0001846C9B2FFF7C0FD0835402D0346EBD1C3
:1032D0003A464946FFF7CAFD0346CDE90097324614
:1032E00021464046FFF7D4FE33780133DBB21F2B73
:1032F00088BF0023337003B0BDE8F08F6FF0030088
:10330000F9E76FF00100F6E72DE9F04F85B092463E
:10331000DDF848800F9D9DF840209DF84490BDF851
:103320004C7006469B46B8F1000F01D1002F48D1E2
:103330001F2A46D83378002B46D00C0244EA026498
:103340009DF8381044EAC93444EA01441C43072F6D
:1033500044F0800432D900234FF6FF72C3F1200CF1
:10336000A3F120002AFA03F10BFA0CFC41EA0C014C
:103370002BFA00F00143C9B210460393FFF764FD36
:10338000039B0833402B0246E8D13A464146FFF7FB
:103390006DFD0346CDE900872A4621463046FFF7FA
:1033A00077FEB9F1010F06D12B780133DBB21F2B69
:1033B00088BF00232B7005B0BDE8F08F4FF6FF7378
:1033C000E8E76FF00100F6E76FF00300F3E70000B5
:1033D000C06900B104307047C3691A68C261C2682D
:1033E0001A60C360438A013B438270472DE9F04174
:1033F000D0F81880194E14461D464146002709B9D9
:10340000BDE8F081D1E90223A21A65EB03039642DD
:1034100077EB03031ED283698B420DD1FFF796FD34
:1034200083691B688361C3680B60438AC1608169DB
:10343000013B43828846E2E7FFF788FD0B68C8F846
:103440000030C3680B60438AC160013B4382D8F8F7
:103450000010D4E788460968D1E700BF80841E00C9
:103460002DE9F04F8BB00D46DDF8509014469B4689
:103470008046002800F01981B9F1000F00F0158195
:10348000531E3F2B00F21181012A03D1BBF1000F23
:1034900040F00B810023CDE90833B8F81430B5EBC8
:1034A000C30F4FEAC30703D300200BB0BDE8F08F72
:1034B0002B199F42D8F80C303ABF7F1BFFB227462A
:1034C0001BB9D8F81030002B7AD0272D4ED8C5F173
:1034D0002806B7424FF000032CBFF6B23E460093D9
:1034E0002946D8F8080008AB3246FFF775FCA7EB71
:1034F000060A35445FFA8AFAB8F8143003F100532B
:10350000053BDB000493D8F80C3003932821039B80
:1035100013B1BAF1000F2CD1D8F8100040B1BAF1B4
:10352000000F05D0009608AB5246691AFFF754FC0D
:1035300038B2002FB8D066070AD00AAB03EBD4012B
:10354000624211F8083C02F00702134101F8083CFE
:10355000082C3CD9102C40F2B580202C40F2B780CA
:10356000BBF1000F00F09C80082334E0BA4600262F
:10357000C2E7049BE02B28BFE02306930B44AB4239
:10358000059314D95A1B03980096924534BF5246AE
:10359000D2B2691A08AB04300792FFF71DFC079AF4
:1035A0001644AAEB020A1544F6B25FFA8AFA049BA3
:1035B000069A05999B1A0493039B1B680393A6E73D
:1035C0000093D8F8080008AB3A462946AEE7BBF1AD
:1035D000000F13D00123B4EBC30F6CD0082C12D80A
:1035E0009DF82030621E23FA02F2D50706D54FF06F
:1035F000FF3202FA04F423438DF820309DF8203086
:1036000089F8003051E7102C12D8BDF82030621E26
:1036100023FA02F2D10706D54FF0FF3202FA04F482
:103620002343ADF82030BDF82030A9F800303CE746
:10363000202C0FD80899631E21FA03F3DA0705D569
:103640004FF0FF3202FA04F40C430894089BC9F8C7
:1036500000302AE7402C2BD0DDE90865611EC4F15B
:103660002102A4F1210326FA01F105FA02F225FA5A
:1036700003F311431943CB0712D50122A4F1200310
:10368000C4F1200102FA03F322FA01F1A2405242EE
:1036900043EA010363EB430332432B43CDE90823A1
:1036A000DDE90823C9E90023FFE66FF00100FCE62D
:1036B0006FF00800F9E6082CA0D9102CB3D9202C03
:1036C000EED8C3E7BBF1000FADD0022383E7BBF117
:1036D000000FBBD004237EE730B5012A144638BF63
:1036E0000124402C85B028BF40240025012ACDE9C3
:1036F000025518D81B788DF8083063070AD004AB40
:1037000003EBD405624215F8083C02F0070293402F
:1037100005F8083C009103462246002102A8FFF765
:103720005BFB05B030BD082AE4D9102A03D81B88FA
:10373000ADF80830E1E7202A8DBFD3E900231B68EC
:103740000293CDE90223D8E710B5CB681BB98B6093
:103750000B618B8210BDC4681A681C60C360438A09
:10376000013B4382CA60F0E72DE9F04F95B0CDE907
:1037700004230B6804460D461806C3F3C01147BF67
:10378000C3F3C03BC3F306264FF0020B0E46002BDB
:1037900080F2018213F0C04940F0FD812A7B002AAB
:1037A00000F0F981BBF1020F03D02078B04240F065
:1037B000F581C3F30460089003F07F00069059B3CD
:1037C000C3F3074A2A44069B92F80380760646EA2A
:1037D0000B4646EA834600220023CDE90A235FEA2E
:1037E000D81346EA0A0603936AD0069B00936768DB
:1037F0005B4652460AA92046B847002800F0D1810E
:10380000A76987B9314604F10C00FFF749FB074669
:10381000C8B96FF0020057E0C3F30F2A590608BF7A
:103820000AF0030ACEE73B699E420DD03F68002FA5
:10383000F9D1314604F10C00FFF732FB07460028AE
:10384000E7D0A3693B60A761FE7D08F01F03C6F3C4
:103850008406F01A1FFA80FC0028B8BF0CF1200083
:103860000793A3EB06031FFA83FCD7E90221B8BF35
:1038700000B2002B0993BEBF0CF120031BB20993C9
:1038800052EA010335D0049EDFF8D4C2B21A059E75
:1038900066EB01010026944576EB010329D395F8E8
:1038A0000DE097F81AC0E64516D1039B002B78D09F
:1038B00001281EDCA948904276EB010316D338E0BC
:1038C000A76927B96FF00C0015B0BDE8F08F3B6910
:1038D0009E42B9D03F68F4E7A048904276EB0103DE
:1038E00001D30020F0E7039B002BFAD0099B0F2B9C
:1038F00018DCFA7D4FEA880302F0030203F07C0330
:103900001343FB7539462046FFF720FB6B7BBB76E4
:10391000039B3BB9FB7DC3F38402013262F3860350
:10392000FB75CFE76A7BBB7E9A42DAD1039B002B03
:1039300037D04FEA9813022B33D0049BBB60059B12
:10394000FB60142200210FA8FDF7C0FF049B0C931D
:10395000059B0D932B1D0E932B7BADF846A0013BD1
:10396000DBB2ADF84430079B8DF84930089B8DF8E9
:103970004A30069B8DF84B3094F824308DF848B0CF
:1039800083F001038DF84C300CA9A36820469847BA
:10399000FB7DC3F38403013303F01F039B02FB820F
:1039A0009FE7FB7DC8F34012B2EBD31F40F0FC80D1
:1039B000079AC3F38403934240F0F98003992B7B69
:1039C0004FEA981200294DD0D2075DD4032B40F264
:1039D000F180049BBB60059BFB602B7BAE1D033B12
:1039E000DBB23246394604F10C00FFF7C1FA002879
:1039F0000CDA39462046FFF7A9FAFB7DC3F38403AE
:103A0000013303F01F039B02FB8202E7DDE90A8416
:103A1000AB883B834FF6FF73C9F12000A9F1200268
:103A200028FA09F104FA00F0014324FA02F21143E2
:103A30001846C9B2FFF708FA09F10809B9F1400FB1
:103A40000346E9D1B8822A7B033AD2B23146FFF766
:103A50000DFAFB7DB882DA43C2F3C01262F3C713DA
:103A6000FB753EE782B92E1D013BDBB2324639467B
:103A700004F10C00FFF77CFA0028BADB2A7BB88A35
:103A8000013AD2B23146E2E7F98AC1F30901013BBA
:103A90000429DAB25CD8281D002307F11B069A42DC
:103AA00008D910F801CB06F801C00131013305290E
:103AB000DBB2F4D104990C9105990D91934207F171
:103AC0001B010E9138BF043379680F9134BF55FA4A
:103AD00083F300231093FB8AADF846A0C3F30903D8
:103AE0001A44079B8DF84930089B8DF84A30069B95
:103AF0008DF84B3094F82430ADF8442083F0010366
:103B00008DF84C3000238DF848B07B602A7BB88A52
:103B1000013A291DFFF7AAF93B8BB882834203D1F2
:103B2000A3680CA92046984720460CA9FFF70CFE75
:103B3000FB7DBA8AC3F38403013303F01F039B02A6
:103B4000FB823B8B9A420CBF00206FF01000BBE65B
:103B50007B68002BAED0052006E000BF40420F007E
:103B600080841E001C3033461E68002EFAD1091ACC
:103B7000081D2E1D184401EB090CBCF11B0F5FFA48
:103B800089F397D89A4295D916F8013B00F8013B82
:103B900009F10109EFE76FF0090095E66FF00A00FF
:103BA00092E66FF00B008FE66FF00D008CE66FF081
:103BB0000E0089E66FF00F0086E600BFEFF3098381
:103BC00005494A6B22F001024A63683383F309888E
:103BD000002383F31188704700EF00E0202080F37A
:103BE000118862B60C4B0D4AD96821F4E0610904D2
:103BF000090C0A43DA60D3F8FC20094942F08072CC
:103C0000C3F8FC200A6842F001020A601022DA7749
:103C100083F82200704700BF00ED00E00003FA05C2
:103C2000001000E010B5202383F311880E4B5B6871
:103C300013F4006314D0F1EE103AEFF30984683CFA
:103C40004FF08073E361094BDB6B236684F30988D3
:103C500000F080FB10B1064BA36110BD054BFBE7E4
:103C600083F31188F9E700BF00ED00E000EF00E00A
:103C70004B0600084E0600080268436811430160C5
:103C800003B1184770470000024A136843F0C003AD
:103C9000136070470044004013B50E4C204600F0FE
:103CA0009BFA04F114000C49009400234FF4807235
:103CB00000F05CF9094B0A4900944FF4807204F15A
:103CC000380000F0D5F9074A074BC4E9172302B0C2
:103CD00010BD00BFE44A0020504B0020893C000882
:103CE000504C002000440040007A030A30B5037CA9
:103CF000214C002918BF0C46012B0CD11F4B9842B8
:103D000009D11F4B9A6D42F400329A659A6F42F4C2
:103D100000329A679B6F2268036EC16D846603EB65
:103D20005203B3FBF2F36268150442BF23F00705A8
:103D300003F0070343EA4503CB60A36843F0400365
:103D40004B60E36843F001038B6042F4967343F0E9
:103D500001030B604FF0FF330B62510505D512F0E4
:103D6000102205D0B2F1805F04D080F8643030BDFD
:103D70007F23FAE73F23F8E75C510008E44A00207C
:103D8000001002402DE9F047C66D3768F4693462CF
:103D90002107054618D014F0080118BF8021E2075A
:103DA00048BF41F02001A30748BF41F04001600730
:103DB00048BF41F48071202383F31188281DFFF749
:103DC0005BFF002383F31188E2050AD5202383F3E8
:103DD00011884FF40071281DFFF74EFF002383F375
:103DE00011884FF020094FF0000A14F0200838D154
:103DF0003B0616D54FF0200905F1380A200610D5EC
:103E000089F31188504600F067F9002836DA082156
:103E1000281DFFF731FF27F080033360002383F371
:103E20001188790614D5620612D5202383F31188F0
:103E3000D5E913239A4208D12B6C33B11021281DE8
:103E400027F04007FFF718FF3760002383F311883E
:103E5000E30618D5AA6E1369ABB1BDE8F047506907
:103E6000184789F31188736A95F864102846194039
:103E700000F0CCF98AF31188F469B6E7B06288F3F0
:103E80001188F469BAE7BDE8F087000000F16043EB
:103E900003F561430901C9B283F80013012200F060
:103EA0001F039A4043099B0003F1604303F56143FC
:103EB000C3F880211A607047F8B515468268066914
:103EC000AA420B46816938BF8568761AB542044616
:103ED0000BD218462A46FDF7E7FCA3692B44A361E1
:103EE000A3685B1BA3602846F8BD0CD91846324670
:103EF000FDF7DAFCAF1BE1683A463044FDF7D4FC2D
:103F0000E3683B44EBE718462A46FDF7CDFCE3683F
:103F1000E5E7000083689342F7B51546044638BFCD
:103F20008568D0E90460361AB5420BD22A46FDF7FF
:103F3000BBFC63692B446361A36828465B1BA360D9
:103F400003B0F0BD0DD932460191FDF7ADFC0199EA
:103F5000E068AF1B3A463144FDF7A6FCE3683B44FA
:103F6000E9E72A46FDF7A0FCE368E4E710B50A4458
:103F70000024C361029B8460C0E90000C0E9051110
:103F8000C1600261036210BD08B5D0E905329342F9
:103F900001D1826882B98268013282605A1C426112
:103FA0001970D0E904329A4224BFC36843610021EA
:103FB00000F0A0FA002008BD4FF0FF30FBE7000042
:103FC00070B5202304460E4683F31188A568A5B179
:103FD000A368A269013BA360531CA3611578226901
:103FE000934224BFE368A361E3690BB1204698477D
:103FF000002383F31188284607E03146204600F06D
:1040000069FA0028E2DA85F3118870BD2DE9F74FCF
:1040100004460E4617469846D0F81C904FF0200AEA
:104020008AF311884FF0000B154665B12A463146D8
:104030002046FFF741FF034660B94146204600F0A5
:1040400049FA0028F1D0002383F31188781B03B0CC
:10405000BDE8F08FB9F1000F03D001902046C847AA
:10406000019B8BF31188ED1A1E448AF31188DCE75B
:10407000C0E90511C160C3611144009B8260C0E9C1
:104080000000016103627047F8B504460D4616460C
:10409000202383F31188A768A7B1A368013BA3601D
:1040A00063695A1C62611D70D4E904329A4224BFCC
:1040B000E3686361E3690BB120469847002080F311
:1040C000118807E03146204600F004FA0028E2DAC1
:1040D00087F31188F8BD0000D0E905239A4210B596
:1040E00001D182687AB98268013282605A1C826189
:1040F0001C7803699A4224BFC3688361002100F0E1
:10410000F9F9204610BD4FF0FF30FBE72DE9F74FDE
:1041100004460E4617469846D0F81C904FF0200AE9
:104120008AF311884FF0000B154665B12A463146D7
:104130002046FFF7EFFE034660B94146204600F0F7
:10414000C9F90028F1D0002383F31188781B03B04C
:10415000BDE8F08FB9F1000F03D001902046C847A9
:10416000019B8BF31188ED1A1E448AF31188DCE75A
:10417000026843681143016003B1184770470000AB
:104180001430FFF743BF00004FF0FF331430FFF748
:104190003DBF00003830FFF7B9BF00004FF0FF33DC
:1041A0003830FFF7B3BF00001430FFF709BF00003D
:1041B0004FF0FF311430FFF703BF00003830FFF736
:1041C00063BF00004FF0FF323830FFF75DBF0000E3
:1041D00000207047FFF760BD044B03600023C0E977
:1041E0000233436001230374704700BF7451000819
:1041F00010B52023044683F31188FFF777FD0223CF
:104200002374002383F3118810BD000038B5C369FF
:1042100004460D461BB904210844FFF7A9FF2946AF
:1042200004F11400FFF7B0FE002806DA201D4FF459
:104230008061BDE83840FFF79BBF38BD024B0022CC
:10424000C3E900339A607047504D00200023037487
:104250008268054B1B6899689142FBD25A680360DB
:104260004260106058607047504D002008B5202310
:1042700083F31188037C032B05D0042B0DD02BB9BD
:1042800083F3118808BD436900221A604FF0FF33A1
:104290004361FFF7DBFF0023F2E7D0E90032136050
:1042A0005A60F3E7002303748268054B1B68996822
:1042B0009142FBD85A6803604260106058607047B2
:1042C000504D0020054B19690874186802681A607F
:1042D0005360186101230374FCF7A2B9504D00200C
:1042E00030B54B1C0B4D87B0044610D02B690A4AE1
:1042F00001A800F019F92046FFF7E4FF049B13B171
:1043000001A800F04DF92B69586907B030BDFFF7DF
:10431000D9FFF8E7504D00206D42000838B50C4D2C
:1043200041612B6981689A689142044603D8BDE8CF
:104330003840FFF78BBF1846FFF7B4FF01232C610D
:10434000014623742046BDE83840FCF769B900BF38
:10435000504D0020044B1A681B6990689B68984276
:1043600094BF002001207047504D002010B5084C2C
:10437000236820691A6822605460012223611A743C
:10438000FFF790FF01462069BDE81040FCF748B9EF
:10439000504D002008B5FFF7DDFF18B1BDE808401B
:1043A000FFF7E4BF08BD0000FFF7E0BFFEE7000035
:1043B00010B50C4CFFF742FF00F0A8F80A49802224
:1043C000204600F03DF8012344F8180C0374FFF771
:1043D00005FC002383F3118862B60448BDE8104051
:1043E00000F04EB8784D00209C510008AC510008F8
:1043F00008B572B6034B586200F06EFA00F026FB67
:10440000FEE700BF504D002000F004B9EFF311802B
:1044100020B9EFF30583202282F311887047000052
:1044200010B530B9EFF30584C4F3080414B180F378
:10443000118810BDFFF7AEFF84F31188F9E7000083
:1044400082600222028270478368A3F17C0243F8F3
:104450000C2C026943F83C2C426943F8382C074A7B
:1044600043F81C2CC26843F8102C022203F8082CD5
:10447000002203F8072CA3F1180070473906000842
:1044800010B5202383F31188FFF7DEFF00210446D7
:10449000FFF744FF002383F31188204610BD00007E
:1044A000024B1B6958610F20FFF70CBF504D0020D5
:1044B000202383F31188FFF7F3BF000008B50146FE
:1044C000202383F311880820FFF70AFF002383F3DA
:1044D000118808BD49B1064B42681B6918605A60D3
:1044E000136043600420FFF7FBBE4FF0FF307047BE
:1044F000504D00200368984206D01A680260506050
:1045000059611846FFF7A2BE70470000054B03F142
:104510001402C3E905224FF0FF310022C3E907125C
:10452000704700BF504D002070B51C4EC0E90323FA
:1045300005460C4600F0F0FA334653F8142F9A4221
:104540000DD13062C5E901242A600A2C2CBF001964
:104550000A30C6E90555BDE8704000F0CBBA316AB3
:10456000431AE31838BF1C469368A34202D90819BE
:1045700000F0CEFA73699A6894420CD85A68AC601D
:104580002B606A6015609A685D60121B9A604FF03C
:10459000FF33F36170BD1B68A41AECE7504D002097
:1045A00038B51B4C636998420DD0D0E900321360D6
:1045B0005A6000228168C2609A680A449A604FF08B
:1045C000FF33E36138BD2246036842F8143F0021FF
:1045D00093425A60C16003D1BDE8384000F092BAFE
:1045E0009A688168256A0A449A6000F095FA6369BE
:1045F0009A68411B8A42E5D9AB181D1A092D206A19
:1046000098BF01F10A02BDE83840104400F080BABA
:10461000504D00202DE9F041184C002704F11406FC
:10462000656900F079FA236AAA68C11A8A4215D826
:1046300013442362D5E9003213605A606369D5F8E8
:104640000C80EF60B34201D100F05CFA87F311886F
:104650002869C047202383F31188E1E76169B142EB
:1046600009D013441B1ABDE8F0410A2B2CBFC01817
:104670000A3000F04DBABDE8F08100BF504D002077
:1046800000207047FEE70000704700004FF0FF3049
:1046900070470000BFF34F8F024A1369DB03FCD45D
:1046A000704700BF0020024008B5094B1B7873B962
:1046B000FFF7F0FF074B5A69002ABFBF064A9A600E
:1046C00002F188329A601A6822F480621A6008BD8A
:1046D000184F0020002002402301674508B50B4B0E
:1046E0001B7893B9FFF7D6FF094B5A6942F0004295
:1046F0005A611A6842F480521A601A6822F4805291
:104700001A601A6842F480621A6008BD184F0020CF
:1047100000200240FF289ABF00F58030C002002030
:10472000704700004FF40060704700004FF4807045
:1047300070470000FF2808B50BD8FFF7EBFF00F526
:1047400000630268013204D104308342F9D10120B0
:1047500008BD0020FCE70000FF2838B5044626D835
:10476000FFF754FEFFF796FFFFF79EFF114BF32272
:104770001A6102225A615A6942EAC4025A615A69AC
:1047800042F480325A6105462046FFF783FF4FF41A
:104790000061FFF7BFFF00F055F92846FFF79EFFC5
:1047A000FFF73EFE2046BDE83840FFF7C3BF0020BC
:1047B00038BD00BF0020024040EA020313F00703A7
:1047C0002DE9F04705460C46164606D0324B40F21E
:1047D000FB221A600020BDE8F08781182F4A914221
:1047E0000CD92D4A4FF440711160F3E72B1D1B6863
:1047F0006268934208D1083E08350834072E19D95B
:104800002A6823689A42F1D0FFF700FEFFF74CFFB9
:10481000FFF740FF04F10801214C4FF001084FF071
:104820000009012EA1F1080708D8FFF757FFFFF78D
:10483000F7FD01E0002EE7D10120CCE7C4F8148099
:10484000AA4651F8083C4AF8043B51F8043C6B6016
:10485000FFF720FFC4F814902A6851F8083C9A42E8
:104860000ED00D4B40F226321A600E4B1D600E4BDF
:104870001E600E4B1F60FFF731FFFFF7D1FDA9E768
:10488000DAF800A051F8043C9A4501F10801E8D19A
:10489000083E0835C5E700BF144F00200000080897
:1048A00000200240084F0020104F00200C4F002035
:1048B000084908B50B7828B11BB9FFF7F5FE0123AD
:1048C0000B7008BD002BFCD0BDE808400870FFF756
:1048D00005BF00BF184F002008B54FF4C0314FF09E
:1048E000005000F0B1F8BDE808404FF400414FF02F
:1048F000805000F0A9B80000084600F09FBB0000FF
:1049000070B582B0FFF782FD0E4E054600F004F947
:104910003268904237BF0C4A0B49516814682EBF69
:10492000D1E90041013151600419034641F1000110
:10493000284601913360FFF773FD0199204602B0CC
:1049400070BD00BF1C4F0020204F002070B582B00A
:10495000FFF75CFD104E054600F0DEF8326890422D
:1049600037BF0E4A0D49516814682EBFD1E9004186
:1049700001315160041941F10001034628460191BB
:104980003360FFF74DFD01994FF47A720023204602
:10499000FBF72EFC02B070BD1C4F0020204F002002
:1049A0000244D2B2904200D17047431C800000F113
:1049B000804000F51450006841F8040BD8B2F1E7CC
:1049C000124B10B5D3F89040240409D4D3F890408A
:1049D000C3F89040D3F8904044F40044C3F89040AA
:1049E0000B4C2368024443F480732360D2B290429C
:1049F00000D110BD431C800000F1804000F5145030
:104A000051F8044B0460D8B2F1E700BF0010024037
:104A10000070004007B5012201A90020FFF7C0FF88
:104A2000019803B05DF804FB13B50446FFF7F2FFED
:104A3000A04205D0012201A900200194FFF7C0FF88
:104A400002B010BD704700007047000070470000C2
:104A5000034B1B781BB1034B4AF6AA221A6070471E
:104A60002C4F002000300040054B1A6832B902F18B
:104A7000804202F50432D2F894201A60704700BFD9
:104A8000284F0020024B4FF40002C3F894207047D7
:104A90000010024008B5FFF7E7FF024B1868C0F3AB
:104AA000407008BD284F002070470000FEE700005E
:104AB0000A4B0B480B4A90420BD30B4BDA1C121AD1
:104AC000C11E22F003028B4238BF00220021FCF7F6
:104AD000FDBE53F8041B40F8041BECE7205300080C
:104AE000B04F0020B04F0020B04F002070470000B2
:104AF00000F078B84FF08043002258631A61022218
:104B0000DA6070474FF080430022DA60704700009F
:104B10004FF08043586370474FF08043586A7047A6
:104B20004B6843608B688360CB68C3600B694361EB
:104B30004B6903628B6943620B6803607047000036
:104B400008B5204BDA6A42F07F02DA62DA6A22F0B4
:104B50007F02DA62DA6ADA6C42F07F02DA64DA6ED5
:104B600042F07F02DA66184ADB6E11464FF0904041
:104B7000FFF7D6FF02F11C0100F58060FFF7D0FFC0
:104B800002F1380100F58060FFF7CAFF02F154011D
:104B900000F58060FFF7C4FF02F1700100F580604E
:104BA000FFF7BEFF02F18C0100F58060FFF7B8FF50
:104BB00002F1A80100F58060FFF7B2FFBDE80840F0
:104BC00000F064B800100240C451000808B500F0BD
:104BD00003FAFFF7EDFBBDE80840FFF745BF000013
:104BE000704700000F4B9A6D42F001029A659A6F70
:104BF00042F001029A670C4A9B6F936843F00103ED
:104C000093604FF08043A7229A624FF0FF32DA623E
:104C100000229A615A63DA605A6001225A611A606E
:104C2000704700BF00100240002004E04FF08042B7
:104C300008B51169D3680B40D9B2C9439B0711610C
:104C400007D5202383F31188FFF7DEFB002383F3CE
:104C5000118808BD08B50B4BD3F8902012F4407FA3
:104C60001FBF4FF48032C3F890200022C3F8902079
:104C7000D3F89020C3F8902000F086F9024B002270
:104C80005A6008BD0010024000700040484B4FF0D1
:104C9000FF319A6A99629A6A00229A62986AD86A7F
:104CA00060F07F00D862D86A00F07F00D862D86ACE
:104CB000186B1963186B1A63186B986B9963986B70
:104CC0009A63986BD86BD963D86BDA63D86B186C1E
:104CD0001964196C1A641A6C9A6D42F080529A65C4
:104CE0009A6F22F080529A679A6F324A4FF400719D
:104CF0001160516911F48061FBD14FF400405160A3
:104D000090604FF48070D160C2F8800011625162EF
:104D10009162D162116351639163D16311645164F3
:104D20009164D16411655165D3F8982042F0010275
:104D3000C3F89820D3F898209007FBD51A6842F45E
:104D400080321A601A689103FCD51A490A6842F445
:104D500080720A60184ADA601A6842F080721A603B
:104D60001A689201FCD5002214499A60C3F8881091
:104D70001349C3F89C20134A0A600A6802F00F0224
:104D8000042AFAD19A6842F003029A609A6802F003
:104D90000C020C2AFAD11A6E42F001021A66D3F8FC
:104DA000802042F00102C3F88020D3F880307047A1
:104DB0000010024000700040232A6101550100509C
:104DC0000020024004070400074A08B5536903F0B5
:104DD0000103536123B1054A13680BB1506898472A
:104DE000BDE80840FEF71EBF00040140304F002020
:104DF000074A08B5536903F00203536123B1054A1A
:104E000093680BB1D0689847BDE80840FEF70ABF29
:104E100000040140304F0020074A08B5536903F0F1
:104E20000403536123B1054A13690BB150699847D4
:104E3000BDE80840FEF7F6BE00040140304F0020F8
:104E4000074A08B5536903F00803536123B1054AC3
:104E500093690BB1D0699847BDE80840FEF7E2BE00
:104E600000040140304F0020074A08B5536903F0A1
:104E70001003536123B1054A136A0BB1506A984776
:104E8000BDE80840FEF7CEBE00040140304F0020D0
:104E9000164B10B55C6904F478725A61A30604D508
:104EA000134A936A0BB1D06A9847600604D5104A3A
:104EB000136B0BB1506B9847210604D50C4A936BCA
:104EC0000BB1D06B9847E20504D5094A136C0BB1BE
:104ED000506C9847A30504D5054A936C0BB1D06C70
:104EE0009847BDE81040FEF79DBE00BF000401409A
:104EF000304F0020194B10B55C6904F47C425A61B4
:104F0000620504D5164A136D0BB1506D9847230501
:104F100004D5134A936D0BB1D06D9847E00404D5C6
:104F20000F4A136E0BB1506E9847A10404D50C4A7A
:104F3000936E0BB1D06E9847620404D5084A136F84
:104F40000BB1506F9847230404D5054A936F0BB1FA
:104F5000D06F9847BDE81040FEF764BE00040140E2
:104F6000304F002008B50348FEF70CFFBDE80840AD
:104F7000FEF758BEE44A002008B5FFF757FEBDE82B
:104F80000840FEF74FBE0000062108B50846FEF7B0
:104F90007DFF06210720FEF779FF06210820FEF796
:104FA00075FF06210920FEF771FF06210A20FEF792
:104FB0006DFF06211720FEF769FF06212820FEF766
:104FC00065FF07211C20FEF761FFBDE808400C21AA
:104FD0002620FEF75BBF000008B5FFF73BFE00F0A0
:104FE00009F8FFF7F7F8FFF7FBFDBDE80840FFF70A
:104FF0007FBD00000023054A19460133102BC2E98A
:10500000001102F10802F8D1704700BF304F0020B4
:105010000B460146184600F003B8000000F00EB839
:1050200010B5054C13462CB10A4601460220AFF3D9
:10503000008010BD2046FCE700000000024B014646
:105040001868FFF759BC00BF2C23002010B50139A8
:105050000244904201D1002005E0037811F8014F8D
:10506000A34201D0181B10BD0130F2E72DE9F04139
:10507000A3B1C91A17780144044603F1FF3C8C42DE
:10508000204601D9002009E00578BD4204F1010461
:10509000F5D10CEB0405D618A54201D1BDE8F0818D
:1050A00015F8018D16F801EDF045F5D0E7E70000A1
:1050B000034611F8012B03F8012B002AF9D17047A0
:1050C0006F72672E6172647570696C6F742E4653CF
:1050D0004F5F506F7765725F537461636B000000C0
:1050E00053544D333247343F3F0000004261642047
:1050F00043414E496661636520696E6465782E00A0
:105100000000000000000000DD1E0008E519000896
:10511000A5250008DD190008551A0008711C0008B3
:10512000CD1B00081D1A0008211A0008F9190008F3
:10513000E1190008311C0008051A0008792600084A
:10514000111A0008051C000840A2E4F164689106E9
:105150000041A3E5F2656992070000000096000097
:10516000000000000000000000000000000000003F
:1051700000000000000000009D4100088941000877
:10518000C5410008B1410008BD410008A94100081F
:105190009541000881410008D14100086D61696EA8
:1051A0000000000069646C6500000000A451000864
:1051B000904D0020084F002001000000AD43000882
:1051C000000000000004002800000000AAAAAAAA0B
:1051D00000000024FFFF00000000000000000000AD
:1051E000806A040000000000AA6AA6AA000000006D
:1051F0007FFD000000B09B090000000000000000DF
:1052000000000000AAAAAAAA00000000FFFF0000F8
:10521000000000000000000000000000000000008E
:10522000AAAAAAAA00000000FFFF000000000000D8
:10523000000000000000000000000000AAAAAAAAC6
:1052400000000000FFFF0000000000000000000060
:105250000000000000000000AAAAAAAA00000000A6
:10526000FFFF000000000000000000000000000040
:1052700000000000AAAAAAAA00000000FFFF000088
:10528000000000000000000098AFFF7F0100000058
:105290007C05000000000000007007000000000016
:1052A000FE2A0100D2040000FF000000E44A0020B2
:1052B00000000000E05000083F0000003023002004
:1052C00000000000000000000000000000000000DE
:1052D00000000000000000000000000000000000CE
:1052E00000000000000000000000000000000000BE
:1052F00000000000000000000000000000000000AE
:10530000000000000000000000000000000000009D
:10531000000000000000000000000000000000008D
:00000001FF
